:100AE8002050415353574F52442050524F5445437E
:100AF80054494F4E00202020202020205359535481
:100B0800454D2020202020202000454E54455220CD
:100B180050415353574F52443A202000202041431C
:100B280043455353204752414E544544202020000A
:100B380020202057454C434F4D4520484F4D4521D7
:100B4800202020002020444F4F525320434C4F5325
:100B5800494E472E2E202020002020204143434587
:0E0B680053532044454E49454421202020008F
:100800007F38120BF97F01120BF97F10120BF97F61
:100810000C120BF97F80120BF97A0A79E8120B7629
:100820007FC0120BF97A0A79FD120B76120BDC12DB
:100830000BDC120BDC7F01120BF97BFF7A0B7912B8
:100840007D13120B7A7FC0120BF9C290209423748F
:100850000F2513F87631120BDC120BDC120BDC12B5
:100860000BDC120BDC120BDC120BDC7F2A120C07E8
:100870000513209523740F2513F87632120BDC1222
:100880000BDC120BDC120BDC120BDC120BDC120B80
:10089000DC7F2A120C070513209623740F2513F80A
:1008A0007633120BDC120BDC120BDC120BDC120B9E
:1008B000DC120BDC120BDC7F2A120C070513C2972B
:1008C000D290209423740F2513F87634120BDC1287
:1008D0000BDC120BDC120BDC120BDC120BDC120B30
:1008E000DC7F2A120C070513209523740F2513F8BB
:1008F0007635120BDC120BDC120BDC120BDC120B4C
:10090000DC120BDC120BDC7F2A120C07051320967D
:1009100023740F2513F87636120BDC120BDC120B46
:10092000DC120BDC120BDC120BDC120BDC7F2A124C
:100930000C070513C292D297209423740F2513F845
:100940007637120BDC120BDC120BDC120BDC120BF9
:10095000DC120BDC120BDC7F2A120C07051320952E
:1009600023740F2513F87638120BDC120BDC120BF4
:10097000DC120BDC120BDC120BDC120BDC7F2A12FC
:100980000C070513209623740F2513F87639120BE4
:10099000DC120BDC120BDC120BDC120BDC120BDC9E
:1009A000120BDC7F2A120C070513C293D2922094FB
:1009B00023740F2513F8762A120BDC120BDC120BB2
:1009C000DC120BDC120BDC120BDC120BDC7F2A12AC
:1009D0000C070513209523740F2513F87630120B9E
:1009E000DC120BDC120BDC120BDC120BDC120BDC4E
:1009F000120BDC7F2A120C07051320960C120A0E2C
:0E0A0000120BDC120BDC120BDCD29302084A44
:100A0E00E50F64346003020AD7E510643560030213
:100A1E000AD7E51164366003020AD7E5126437601F
:100A2E0003020AD77F01120BF97BFF7A0B79247D23
:100A3E0013120B7A7FC0120BF97BFF7A0B79387D7C
:100A4E0014120B7A750800750932E5091509AE08FE
:100A5E00700215084E600DD2B3C2B4D2B5C2B61232
:100A6E000BDC80E675080075093CE5091509AE0832
:100A7E00700215084E6005120BD480EE7F01120B2A
:100A8E00F97BFF7A0B794C7D14120B7A7508007581
:100A9E000932E5091509AE08700215084E600DC23F
:100AAE00B3D2B4C2B5D2B6120BDC80E67F01120B04
:100ABE00F9750800750928E5091509AE08700215C3
:100ACE00084E6015120BD480EE7F01120BF97BFFDE
:090ADE007A0B79617D14120B7A88
:010AE70022EC
:0E0BF9008FA0C2B0C2B1D2B2120BDCC2B222C7
:0E0C07008FA0D2B0C2B1D2B2120BDCC2B222A8
:040B76007BFF7D1470
:080B7A008B0A8A0B890C8D0D1A
:100B8200E4F50EE50EC3950D501AAB0AAA0BA90C9B
:100B9200850E82758300120BA7FF120C07120BDC65
:040BA200050E80DFDD
:010BA600222C
:080BD400C2B3C2B4C2B5C2B63F
:100BDC00E4FFFE0FBF00010EBE1FF8BF40F5E4FF9F
:0C0BEC00FE0FBF00010EEF64644E70F5B8
:010BF80022DA
:03000000020C15DA
:0C0C1500787FE4F6D8FD7581130208001A
:100BA700BB010CE58229F582E5833AF583E0225003
:100BB70006E92582F8E622BBFE06E92582F8E2224D
:0D0BC700E58229F582E5833AF583E4932267
:00000001FF
